:100000000C942A000C9434000C9434000C943400AA
:100010000C9434000C9434000C9434000C94340090
:100020000C9434000C9434000C9434000C94340080
:100030000C9434000C9434000C9434000C94340070
:100040000C9434000C9434000C9434000C94340060
:100050000C94340011241FBECFE5D8E0DEBFCDBF25
:100060000E945B000C9464000C9400001ABA379A4A
:1000700086B1876086B93D9A0895CF93DF931F922A
:10008000CDB7DEB797B18F71982B97B9369A349B5D
:10009000FECF85E38A95F1F7000085B189838981D8
:1000A00090E00F90DF91CF91089581E683BF12BE5B
:1000B0001CBEBB9A08950E9436000E94550080E045
:0C00C0000E943D008CBFFBCFF894FFCFE6
:00000001FF
