:100000000C942A000C9434000C9434000C943400AA
:100010000C9434000C9434000C9434000C94340090
:100020000C9434000C9434000C9434000C94340080
:100030000C9434000C9434000C9434000C94340070
:100040000C9434000C9434000C9434000C94340060
:100050000C94340011241FBECFE5D8E0DEBFCDBF25
:100060000E9436000C94A7000C9400008FE784BB1C
:10007000FFE3E0E37BE56FE456E64DE63DE727E08E
:100080009FEF8FE6F5BBAFE3BDE0C3E0A150B0400A
:10009000C040E1F700C00000E5BBAFE3BDE0C3E056
:1000A000A150B040C040E1F700C0000075BBAFE315
:1000B000BDE0C3E0A150B040C040E1F700C0000087
:1000C00065BBAFE3BDE0C3E0A150B040C040E1F785
:1000D00000C0000055BBAFE3BDE0C3E0A150B0409D
:1000E000C040E1F700C0000045BBAFE3BDE0C3E0A6
:1000F000A150B040C040E1F700C0000035BBAFE305
:10010000BDE0C3E0A150B040C040E1F700C0000036
:1001100025BBAFE3BDE0C3E0A150B040C040E1F774
:1001200000C0000095BBAFE3BDE0C3E0A150B0400C
:10013000C040E1F700C0000085BBAFE3BDE0C3E015
:10014000A150B040C040E1F700C000009BCFF89440
:02015000FFCFDF
:00000001FF
