:100000000C942A000C9447000C9447000C94470071
:100010000C9447000C9447000C9447000C94470044
:100020000C9447000C9447000C9447000C94470034
:100030000C9447000C9447000C9447000C94470024
:100040000C9447000C9447000C9447000C94470014
:100050000C94470011241FBECFE5D8E0DEBFCDBF12
:1000600010E0A0E6B0E0EEE6F2E002C005900D92EE
:10007000AA3BB107D9F720E0AAEBB0E001C01D927E
:10008000AA3BB207E1F70E9418010C9435010C94C9
:10009000000088BBA898A998AA9A0000AA988DEE9B
:1000A00092E00197F1F700C00000089588BBA89A7C
:1000B000A998AA9A0000AA9889EF90E00197F1F711
:1000C00000C000000895CF93DF93EC01888188235E
:1000D00031F021960E94560089918111FBCFDF916A
:1000E000CF910895CF93DF93EA01811108C0603169
:1000F00078F4862F8F7080680E94490009C0813093
:1001000039F4603128F4862F8F70806C0E9449008A
:10011000CE010E946300DF91CF91089581E00E949B
:10012000490080E80E9449000895CF93C0E18CE126
:100130000E9449002FE58AEE90E0215080409040D7
:10014000E1F700C00000C15091F7CF910895CF931F
:10015000C0E288E10E9449002FE58AEE90E021503C
:1001600080409040E1F700C00000C15091F7CF916E
:1001700008950F931F93CF93DF93883080F48B0102
:10018000880F880F880F805C0E944900E801085F93
:100190001F4F89910E945600C017D107D1F7DF91F8
:1001A000CF911F910F91089568E970E080E00E945F
:1001B000B90060E970E081E00E94B90068E870E091
:1001C00082E00E94B90060E870E083E00E94B9001C
:1001D00068E770E084E00E94B90060E770E085E0C5
:1001E0000E94B90068E670E086E00E94B90060E60F
:1001F00070E087E00E94B90008958FEF87BB84BB51
:1002000087E893E10197F1F700C0000088E30E94BE
:1002100049008CE00E94490086E00E9449000E944B
:10022000D40081E00E94490080E80E9449000895BE
:100230000E94FD0080EA90E00E94630087E00E9437
:10024000560083EA90E00E9463004AEA50E060E0D2
:1002500081E00E94720086E00E9456000E94950094
:0E0260000E94A7000E948E00E5CFF894FFCF09
:10026E00000A1F1F0E04000000000A0004110E00F9
:10027E000A0A1F11110E040401030509090B1B18AC
:10028E000103071F1F070301040E0E0E1F000400BB
:10029E00041F11111F1F1F1F000A15110A04000051
:1002AE0049200020414C4C41480049204C4F5645B6
:0A02BE00204D4F48414D45442000FB
:00000001FF
