:100000000C942A000C9434000C9434000C943400AA
:100010000C9434000C9434000C9434000C94340090
:100020000C9434000C9434000C9434000C94340080
:100030000C9434000C9434000C9434000C94340070
:100040000C9434000C9434000C9434000C94340060
:100050000C94340011241FBECFE5D8E0DEBFCDBF25
:100060000E9436000C944F000C94000083E087BB84
:1000700091E082E098BB2FE73AE146E02150304022
:100080004040E1F700C0000088BB2FE73AE146E0BE
:10009000215030404040E1F700C00000EBCFF89421
:0200A000FFCF90
:00000001FF
