S0130000707573685F627574746F6E2E7372656356
S11300000C942A000C9434000C9434000C943400A6
S11300100C9434000C9434000C9434000C9434008C
S11300200C9434000C9434000C9434000C9434007C
S11300300C9434000C9434000C9434000C9434006C
S11300400C9434000C9434000C9434000C9434005C
S11300500C94340011241FBECFE5D8E0DEBFCDBF21
S11300600E9436000C9443000C94000081E087BB8E
S113007014BA8FEF85BB91E083B38E3F11F498BB24
S10D0080FBCF18BAF9CFF894FFCFB4
S9030000FC
