S015000034626974206D6F6465206C63642E7372656384
S11300000C942A000C9447000C9447000C9447006D
S11300100C9447000C9447000C9447000C94470040
S11300200C9447000C9447000C9447000C94470030
S11300300C9447000C9447000C9447000C94470020
S11300400C9447000C9447000C9447000C94470010
S11300500C94470011241FBECFE5D8E0DEBFCDBF0E
S113006010E0A0E6B0E0EEE8F9E002C005900D92E1
S1130070AC3CB107D9F721E0ACECB0E001C01D9273
S1130080A033B207E1F70E9471010C94C5040C94EB
S1130090000095B39F70282F207F922B95BBAA98C0
S11300A0AB9A35E03A95F1F70000AB98EFE1F3E055
S11300B03197F1F700C0000025B32F70F0E18F9F56
S11300C0C0011124822B85BBAB9A35E03A95F1F738
S11300D00000AB988FE39FE10197F1F700C00000A7
S11300E0089595B39F70282F207F922B95BBAA9AD1
S11300F0AB9A35E03A95F1F70000AB98EFE1F3E005
S11301003197F1F700C0000025B32F70F0E18F9F05
S1130110C0011124822B85BBAB9A35E03A95F1F7E7
S11301200000AB988FE39FE10197F1F700C0000056
S11301300895CF93DF93EC018881882331F02196D1
S11301400E94710089918111FBCFDF91CF910895B5
S1130150CF93DF93EA01811108C0603178F4862FD0
S11301608F7080680E94490009C0813039F4603181
S113017028F4862F8F70806C0E944900CE010E9463
S11301809900DF91CF91089581E00E94490080E8B1
S11301900E9449000895CF93C0E18CE10E94490078
S11301A02FEF85EA9EE0215080409040E1F700C0A7
S11301B00000C15091F7CF910895CF93C0E288E138
S11301C00E9449002FEF85EA9EE021508040904034
S11301D0E1F700C00000C15091F7CF9108950F934B
S11301E01F93CF93DF93883080F48B01880F880F9F
S11301F0880F805C0E944900E801085F1F4F8991C5
S11302000E947100C017D107D1F7DF91CF911F91E0
S11302100F91089568E970E080E00E94EF0060E9C2
S113022070E081E00E94EF0068E870E082E00E94E4
S1130230EF0060E870E083E00E94EF0068E770E0A0
S113024084E00E94EF0060E770E085E00E94EF0028
S113025068E670E086E00E94EF0060E670E087E008
S11302600E94EF0008958CEF84BB2FEF89EF90E09C
S1130270215080409040E1F700C0000082E00E94DD
S1130280490088E20E9449008CE00E94490086E00F
S11302900E9449000E940A0181E00E9449008FE304
S11302A09FE10197F1F700C0000008959F938F9399
S11302B07F936F9380EA90E09F938F938CEC90E010
S11302C09F938F930E94DB018CEC90E00E94990035
S11302D08DB79EB708960FB6F8949EBF0FBE8DBF1C
S11302E008950E94330184EA90E00E94990087E017
S11302F00E94710087EA90E00E9499002FEF83ED3D
S113030090E3215080409040E1F700C000004EEAA5
S113031050E060E081E00E94A80086E00E94710045
S11303202FEF83ED90E3215080409040E1F700C02F
S113033000000E94CB000E94DD000E94C4008EEBEE
S113034090E00E94990060E070E0CB010E945601A9
S11303502FEF81EE94E0215080409040E1F700C0FF
S11303600000C0E00FC042EC50E060E081E00E9479
S1130370A8002FEF83ED90E3215080409040E1F7F7
S113038000C00000CF5F0E94C4008EEB90E00E948A
S113039099006C2F70E080E090E00E9456012FEFEE
S11303A081EE94E0215080409040E1F700C00000CD
S11303B0CF3F41F7D8CFAEE0B0E0E1EEF1E00C94EE
S11303C09C040D891E8986E08C831A8309838FEF30
S11303D09FE79E838D83AE01475E5F4F6F89788D63
S11303E0CE0101960E94FD01EF81F885E00FF11F17
S11303F010822E96E4E00C94B804ABE0B0E0E3E0A5
S1130400F2E00C948E046C017B018A01FC011782DA
S11304101682838181FFCCC1CE0101963C01F60195
S11304209381F70193FD859193FF81917F01882347
S113043009F4BAC1853239F493FD859193FF819112
S11304407F01853229F4B60190E00E94F403E7CFDE
S1130450912C212C312CFFE1F315D8F08B3279F05B
S113046038F4803279F08332A1F4232D20611DC049
S11304708D3261F0803369F4232D216016C0832D01
S11304808260382EE32DE4603E2E2AC0F32DF860FE
S11304901DC037FC2DC020ED280F2A3040F08E32CD
S11304A0B9F436FC81C1232D2064322E19C036FEE6
S11304B006C08AE0989E200D1124922E11C0EAE015
S11304C02E9E200D1124222EF32DF0623F2E08C003
S11304D08C3621F4832D8068382E02C0883641F48E
S11304E0F70193FD859193FF81917F018111B3CF32
S11304F0982F9F7D9554933028F40C5F1F4F9FE3F2
S113050099830DC0833631F0833771F0833509F058
S113051059C021C0F801808189830E5F1F4F882450
S11305208394912C530113C02801F2E04F0E511C07
S1130530F801A080B18036FE03C0692D70E002C0CE
S11305406FEF7FEFC5010E94E9034C018201F32D97
S1130550FF773F2E16C0280122E0420E511CF801FD
S1130560A080B18036FE03C0692D70E002C06FEF39
S11305707FEFC5010E94DE034C01F32DF0683F2E8E
S1130580820133FC1BC0822D90E088169906B0F4DA
S1130590B60180E290E00E94F4032A94F4CFF501BE
S11305A037FC859137FE81915F01B60190E00E948E
S11305B0F40321102A9421E0821A910881149104F1
S11305C071F7E8C0843611F0893641F5F80137FE39
S11305D007C060817181828193810C5F1F4F08C0C5
S11305E060817181072E000C880B990B0E5F1F4FE1
S11305F0F32DFF763F2E97FF09C090958095709557
S113060061957F4F8F4F9F4FF0683F2E2AE030E077
S1130610A3010E943004882E861845C0853731F422
S1130620232D2F7EB22E2AE030E025C0932D997F12
S1130630B92E8F36C1F018F4883579F0B5C08037FB
S113064019F0883721F0B0C0E92FE061BE2EB4FE66
S11306500DC0FB2DF460BF2E09C034FE0AC0292F43
S11306602660B22E06C028E030E005C020E130E06C
S113067002C020E132E0F801B7FE07C06081718159
S1130680828193810C5F1F4F06C06081718180E07D
S113069090E00E5F1F4FA3010E943004882E86183D
S11306A0FB2DFF773F2E36FE0DC0232D2E7FA22E6D
S11306B0891458F434FE0BC032FC09C0832D8E7E9D
S11306C0A82E05C0B82CA32C03C0B82C01C0B92C8B
S11306D0A4FE0FC0FE01E80DF11D8081803321F4DA
S11306E09A2D997EA92E09C0A2FE06C0B394B39494
S11306F004C08A2D867809F0B394A3FC11C0A0FE2F
S113070006C0B21488F4280C922C9B180EC0B214A4
S113071060F4B60180E290E00E94F403B394F7CF52
S1130720B21418F42B1802C0982C212CA4FE10C06B
S1130730B60180E390E00E94F403A2FE17C0A1FC7E
S113074003C088E790E002C088E590E0B6010CC0E1
S11307508A2D867859F0A1FE02C08BE201C080E2A6
S1130760A7FC8DE2B60190E00E94F403891438F4EA
S1130770B60180E390E00E94F4039A94F7CF8A9440
S1130780F301E80DF11D8081B60190E00E94F403AD
S11307908110F5CF222009F442CEB60180E290E028
S11307A00E94F4032A94F6CFF6018681978102C051
S11307B08FEF9FEF2B96E2E10C94AA04FC010590C5
S11307C0615070400110D8F7809590958E0F9F1F4F
S11307D00895FC016150704001900110D8F7809594
S11307E090958E0F9F1F08950F931F93CF93DF93C0
S11307F0FB01238121FD03C08FEF9FEF2CC022FF5B
S113080016C046815781248135814217530744F429
S1130810A081B1819D012F5F3F4F318320838C9351
S1130820268137812F5F3F4F3783268314C08B0186
S1130830EC01FB010084F185E02D0995892BE1F69B
S1130840D80116968D919C911797019617969C93B3
S11308508E931697CE01DF91CF911F910F9108953A
S1130860FA01AA27283051F1203181F1E8946F93DD
S11308706E7F6E5F7F4F8F4F9F4FAF4FB1E03ED083
S1130880B4E03CD0670F781F891F9A1FA11D680F21
S1130890791F8A1F911DA11D6A0F711D811D911D54
S11308A0A11D20D009F468943F912AE0269F1124C9
S11308B03019305D3193DEF6CF010895462F47702D
S11308C0405D4193B3E00FD0C9F7F6CF462F4F7088
S11308D0405D4A3318F0495D31FD4052419302D0E6
S11308E0A9F7EACFB4E0A69597958795779567958C
S11308F0BA95C9F700976105710508959B01AC018C
S11309000A2E06945795479537952795BA95C9F7B2
S1130910620F731F841F951FA01D08952F923F928D
S11309204F925F926F927F928F929F92AF92BF92FB
S1130930CF92DF92EF92FF920F931F93CF93DF93A7
S1130940CDB7DEB7CA1BDB0B0FB6F894DEBF0FBE04
S1130950CDBF09942A88398848885F846E847D8451
S11309608C849B84AA84B984C884DF80EE80FD8053
S11309700C811B81AA81B981CE0FD11D0FB6F894C9
S1110980DEBF0FBECDBFED010895F894FFCF8A
S113098E000A1F1F0E04000000000A0004110E00CE
S113099E0A0A1F11110E040401030509090B1B1881
S11309AE0103071F1F070301040E0E0E1F00040090
S11309BE041F11111F1F1F1F000A15110A04000026
S11309CE256C750049200020414C4C4148004920BB
S11309DE4C4F5645204D4F48414D45442000693DEE
S10F09EE20004F76657220466C6F770085
S9030000FC
