S00B00005350492E737265632D
S11300000C942A000C9447000C9447000C9447006D
S11300100C9447000C9447000C9447000C94470040
S11300200C9447000C9447000C9447000C94470030
S11300300C9447000C9447000C9447000C94470020
S11300400C9447000C9447000C9447000C94470010
S11300500C94470011241FBECFE5D8E0DEBFCDBF0E
S113006010E0A0E6B0E0E6EDF0E002C005900D92ED
S1130070A036B107D9F720E0A0E6B0E001C01D9298
S1130080A036B207E1F70E9449000C9469000C9471
S113009000000E945B00C498C0E08C2F0E946400A2
S11300A02FE78AE196E0215080409040E1F700C0BC
S11300B00000CF5FF2CF87B3806B87BBBE98C49A32
S11300C081E58DB9709808958FB9779BFECF8FB174
S10900D00895F894FFCF2F
S9030000FC
