S00E00006B65797061642E7372656398
S11300000C942A000C9447000C9447000C9447006D
S11300100C9447000C9447000C9447000C94470040
S11300200C9447000C9447000C9447000C94470030
S11300300C9447000C9447000C9447000C94470020
S11300400C9447000C9447000C9447000C94470010
S11300500C94470011241FBECFE5D8E0DEBFCDBF0E
S113006010E0A0E6B0E0E4E2F2E002C005900D92F8
S1130070A037B107D9F720E0A0E7B0E001C01D9296
S1130080A237B207E1F70E9404010C9410010C940A
S1130090000030EF2FEF9FEE6FED5FEB4FE731BBCA
S11300A022BB82B38F7082BB000080B38F708093B9
S11300B070008F30B1F77FEF89EFE0E0715080403E
S11300C0E040E1F700C0000080B38F7080937000BF
S11300D08F3089F37FEF83EFE1E071508040E0409F
S11300E0E1F700C0000080B38F70809370008F3000
S11300F011F392BB000080B38F70809370008F3037
S113010019F01092710024C062BB000080B38F709C
S1130110809370008F3021F081E08093710018C0CB
S113012052BB000080B38F70809370008F3021F039
S113013082E0809371000CC042BB000080B38F70DA
S1130140809370008F3009F4AACF83E0809371000C
S1130150809170008E3059F4E0917100F0E0EE0F60
S1130160FF1FEE0FFF1FE05AFF4F808108958D306F
S113017059F4E0917100F0E0EE0FFF1FEE0FFF1F46
S1130180E05AFF4F818108958B3059F4E09171005A
S1130190F0E0EE0FFF1FEE0FFF1FE05AFF4F8281CA
S11301A00895E0917100F0E0EE0FFF1FEE0FFF1FC6
S11301B0E05AFF4F8381089595B39F70282F207FC5
S11301C0922B95BBAA9AAB9A35E03A95F1F70000C9
S11301D0AB98EFE1F3E03197F1F700C0000025B3ED
S11301E02F70F0E18F9FC0011124822B85BBAB9A45
S11301F035E03A95F1F70000AB988FE39FE1019762
S1130200F1F700C000000895CF93DF931F92CDB79C
S1130210DEB70E944900898389810E94DC00F9CFFE
S1070220F894FFCF7C
S1130224313233413435364F373839494D3043450B
S9030000FC
