:100000000C942A000C9447000C9447000C94470071
:100010000C9447000C9447000C9447000C94470044
:100020000C9447000C9447000C9447000C94470034
:100030000C9447000C9447000C9447000C94470024
:100040000C9447000C9447000C9447000C94470014
:100050000C94470011241FBECFE5D8E0DEBFCDBF12
:1000600010E0A0E6B0E0E2E8F3E002C005900D92F7
:10007000A036B107D9F720E0A0E6B0E001C01D929C
:10008000A036B207E1F70E94BA000C94BF010C94AD
:10009000000095B39F70282F207F922B95BBAA98C4
:1000A000AB9A35E03A95F1F70000AB98EFE1F3E059
:1000B0003197F1F700C0000025B32F70F0E18F9F5A
:1000C000C0011124822B85BBAB9A35E03A95F1F73C
:1000D0000000AB988FE39FE10197F1F700C00000AB
:1000E000089595B39F70282F207F922B95BBAA9AD5
:1000F000AB9A35E03A95F1F70000AB98EFE1F3E009
:100100003197F1F700C0000025B32F70F0E18F9F09
:10011000C0011124822B85BBAB9A35E03A95F1F7EB
:100120000000AB988FE39FE10197F1F700C000005A
:1001300008958CEF84BB2FEF89EF90E02150804031
:100140009040E1F700C0000082E00E94490088E290
:100150000E9449008CE00E94490086E00E9449000C
:1001600081E00E9449008FE39FE10197F1F700C011
:100170000000089560E875E280E090E00E94C7000A
:100180000E9499000E94F6000E947100FBCFDC01E2
:10019000CB01880F991FAA1FBB1F880F991FAA1F89
:1001A000BB1F9C01AD01220F331F441F551F220F9F
:1001B000331F441F551F60E074E284EF90E00E94FB
:1001C0009D01CA01B90161507109810991090E941B
:1001D000FA000E94370169B9672F772760BD8AB19D
:1001E00088618AB980B5866880BD08955F9BFECF1F
:1001F0008CB10895E89409C097FB3EF490958095E2
:10020000709561957F4F8F4F9F4F9923A9F0F92FDC
:1002100096E9BB279395F695879577956795B7955A
:10022000F111F8CFFAF4BB0F11F460FF1BC06F5F40
:100230007F4F8F4F9F4F16C0882311F096E911C052
:10024000772321F09EE8872F762F05C0662371F073
:1002500096E8862F70E060E02AF09A95660F771F87
:10026000881FDAF7880F9695879597F908950E9469
:100270007C01A8F19E57B0F1985160F039F19830A7
:1002800070F5092E9927660F771F881F991F0A940A
:10029000D1F71CC0BB27993F4CF4B111B1E0B62B8C
:1002A000672F782F8827985FB1F708C086957795D4
:1002B0006795B79508F4B1609395C1F7BB0F30F41B
:1002C00011F460FF03C06F5F7F4F8F4F3EF4909536
:1002D0008095709561957F4F8F4F9F4F08956894DB
:1002E0000C9497010C94960157FD9058440F551F9C
:1002F00059F05F3F71F04795880F97FB991F61F0A8
:100300009F3F79F087950895121613061406551F1E
:10031000F2CF4695F1DF08C0161617061806991F8A
:10032000F1CF86957105610508940895E894BB277F
:1003300066277727CB0197F90895A1E21A2EAA1B09
:10034000BB1BFD010DC0AA1FBB1FEE1FFF1FA21785
:10035000B307E407F50720F0A21BB30BE40BF50B82
:10036000661F771F881F991F1A9469F7609570950B
:10037000809590959B01AC01BD01CF010895F89443
:02038000FFCFAD
:00000001FF
