S0110000696E746572727570742E7372656326
S11300000C942A000C944F000C9434000C9434008B
S11300100C9434000C9434000C9434000C9434008C
S11300200C9434000C9434000C9434000C9434007C
S11300300C9434000C9434000C9434000C9434006C
S11300400C9434000C9434000C9434000C9434005C
S11300500C94340011241FBECFE5D8E0DEBFCDBF21
S11300600E9436000C9461000C940000D09AB89A57
S11300708A98929A85B7826085BF8BB780648BBF5C
S1130080789491E08BB389278BBB2FE73AE186E024
S1130090215030408040E1F700C00000F3CF1F92B0
S11300A00F920FB60F9211248F939F9398B381E010
S11300B0892788BB9F918F910F900FBE0F901F903F
S10900C01895F894FFCF2F
S9030000FC
