S00C0000554152542E73726563DC
S11300000C942A000C9447000C9447000C9447006D
S11300100C9447000C9447000C9447000C94470040
S11300200C9447000C9447000C9447000C94470030
S11300300C9447000C9447000C9447000C94470020
S11300400C9447000C9447000C9447000C94470010
S11300500C94470011241FBECFE5D8E0DEBFCDBF0E
S113006010E0A0E6B0E0E6E9F4E002C005900D92ED
S1130070A43CB107D9F720E0A4ECB0E001C01D9284
S1130080A43CB207E1F70E9416010C9449020C94B7
S1130090000095B39F70282F207F922B95BBAA98C0
S11300A0AB9A35E03A95F1F70000AB98EFE1F3E055
S11300B03197F1F700C0000025B32F70F0E18F9F56
S11300C0C0011124822B85BBAB9A35E03A95F1F738
S11300D00000AB988FE39FE10197F1F700C00000A7
S11300E0089595B39F70282F207F922B95BBAA9AD1
S11300F0AB9A35E03A95F1F70000AB98EFE1F3E005
S11301003197F1F700C0000025B32F70F0E18F9F05
S1130110C0011124822B85BBAB9A35E03A95F1F7E7
S11301200000AB988FE39FE10197F1F700C0000056
S11301300895CF93DF93EC018881882331F02196D1
S11301400E94710089918111FBCFDF91CF910895B5
S113015081E00E94490080E80E94490008950F93BD
S11301601F93CF93DF93883080F48B01880F880F1F
S1130170880F805C0E944900E801085F1F4F899145
S11301800E947100C017D107D1F7DF91CF911F9161
S11301900F91089568E970E080E00E94AF0060E983
S11301A070E081E00E94AF0068E870E082E00E94A5
S11301B0AF0060E870E083E00E94AF0068E770E0A1
S11301C084E00E94AF0060E770E085E00E94AF0029
S11301D068E670E086E00E94AF0060E670E087E0C9
S11301E00E94AF0008958CEF84BB2FEF89EF90E05D
S11301F0215080409040E1F700C0000082E00E945E
S1130200490088E20E9449008CE00E94490086E08F
S11302100E9449000E94CA0081E00E9449008FE3C5
S11302209FE10197F1F700C00000089560E875E2CE
S113023080E090E00E943E010E94F300B89A0E9480
S11302407101813319F0823369F0F9CFC09A80EAE1
S113025090E00E9475010E94A80087EA90E00E9445
S11302609900EDCFC09881EB90E00E9475010E9447
S1130270A80089EB90E00E949900E1CFDC01CB015A
S1130280880F991FAA1FBB1F880F991FAA1FBB1F86
S11302909C01AD01220F331F441F551F220F331F32
S11302A0441F551F60E074E284EF90E00E9427022F
S11302B0CA01B90161507109810991090E9484013F
S11302C00E94C10169B9672F772760BD8AB188612F
S11302D08AB980B5866880BD08955D9BFECF8CB9D0
S11302E008955F9BFECF8CB10895CF93DF93EC010B
S11302F08881882331F021960E946D0189918111B2
S1130300FBCFDF91CF910895E89409C097FB3EF4A9
S113031090958095709561957F4F8F4F9F4F99234E
S1130320A9F0F92F96E9BB279395F69587957795CC
S11303306795B795F111F8CFFAF4BB0F11F460FF8C
S11303401BC06F5F7F4F8F4F9F4F16C0882311F0E4
S113035096E911C0772321F09EE8872F762F05C0F8
S1130360662371F096E8862F70E060E02AF09A9593
S1130370660F771F881FDAF7880F9695879597F988
S113038008950E940602A8F19E57B0F1985160F0BA
S113039039F1983070F5092E9927660F771F881F59
S11303A0991F0A94D1F71CC0BB27993F4CF4B11193
S11303B0B1E0B62B672F782F8827985FB1F708C074
S11303C0869577956795B79508F4B1609395C1F7CD
S11303D0BB0F30F411F460FF03C06F5F7F4F8F4F8A
S11303E03EF490958095709561957F4F8F4F9F4F08
S11303F0089568940C9421020C94200257FD90589F
S1130400440F551F59F05F3F71F04795880F97FBD4
S1130410991F61F09F3F79F087950895121613068E
S11304201406551FF2CF4695F1DF08C016161706BD
S11304301806991FF1CF86957105610508940895F2
S1130440E894BB2766277727CB0197F90895A1E2A3
S11304501A2EAA1BBB1BFD010DC0AA1FBB1FEE1F3A
S1130460FF1FA217B307E407F50720F0A21BB30B85
S1130470E40BF50B661F771F881F991F1A9469F701
S113048060957095809590959B01AC01BD01CF015D
S10904900895F894FFCF6B
S1130496000A1F1F0E04000000000A0004110E00CB
S11304A60A0A1F11110E040401030509090B1B187E
S11304B60103071F1F070301040E0E0E1F0004008D
S11304C6041F11111F1F1F1F000A15110A04000023
S11304D64C4544204F4E004C4544204F4E2020208E
S11304E6004C4544204F4646004C4544204F464662
S10704F620200000BE
S9030000FC
