S00B00004144432E7372656351
S11300000C942A000C943C000C943C000C943C008E
S11300100C943C000C943C000C943C000C943C006C
S11300200C943C000C943C000C943C000C943C005C
S11300300C943C000C943C000C943C000C943C004C
S11300400C943C000C943C000C943C000C943C003C
S11300500C943C0011241FBECFE5D8E0DEBFCDBF19
S113006020E0A0E6B0E001C01D92A236B207E1F79D
S11300700E9470000C9487000C9400001ABA379AFE
S113008086B1876086B90895CF93DF9300D000D0FE
S1130090CDB7DEB797B18F71982B97B9369A349B49
S11300A0FECF83E08A95F1F7000084B190E09A8353
S11300B0898385B190E0982F88279C838B8329813D
S11300C03A818B819C81820F931F9C838B838B81CC
S11300D09C810F900F900F900F90DF91CF91089516
S11300E08FEF84BB81BB0E943E0082E00E944400EB
S11300F09093610080936000809160009091610012
S113010085BB809160009091610092BBEECFF89422
S1050110FFCF1B
S9030000FC
